:020000040000fa
:080000000001040000000000f3
:020000040000fa
:100200004f8220000e7922000e01880000000000bd
:100210000c000700e063200001002000110007002f
:10022000000020000000e000020032000000020098
:100230000000000070020200000000000040da0030
:100240000000fe004440a900000020000000e00083
:100250000300320000002000a00188004440a800f4
:100260000000060091018800800078000000eb008b
:1002700015003700e280400032a0b4009101ba00be
:10028000e280400032a0b4009102ba00e280400057
:1002900032a0b4000002eb00472bde00f507b200ed
:1002a000602ce10004003a000059eb008301e900f2
:1002b000fdff3e00040037006128e100010032002c
:1002c0000082eb00040007001101ba000200e00008
:1002d000e8ff3a00000006003159ba008301e90046
:1002e0000c0032002159ba008301e90008003200f5
:1002f0000400e00003003a00e280400032a0b400b5
:10030000f5ff370011d9ba008301e900faff3a007e
:100310008100e800e180400032a0b4000000060047
:100320000000fa00e402a900e422a900e442a900c6
:10033000e462a900e4c2a900011c200091407800f9
:10034000c0cfb30000c060000014a000c0e1b7003f
:10035000210e80000000280000806000016f200056
:1003600001007000200e8800c801a800c821a80064
:10037000c841a800c881a800c8a1a800c8c1a80099
:10038000ca41a900c11c20009140780000ccb300f4
:1003900000c07000cce1b700c11c20009140780083
:1003a00000ccb30000c06000a040b300cce1b700b7
:1003b000d201a800d221a800d241a80080022000ca
:1003c0001008880005e1a800012a2000914078006b
:1003d00000ceb30000c07000a0e2b700a062a90088
:1003e0000000eb0010158800512a20009140780091
:1003f00000ceb30000c060000014a000a5e2b7006a
:10040000412a20009140780000ccb30000c0600079
:100410005040b300a4e2b700300128004015880026
:100420000000eb0050158800a1e2a80081e0a800c0
:10043000aac0bf007040b300aae0b7009180a80036
:100440008c60a8005109200091407800f0c8b300ea
:1004500000c0600001c5b3000140700095e0b70026
:1004600090e0a800710a200091407800f0c8b30025
:1004700000c0600001c6b30001407000a7e0b700f3
:100480000080fa00000006000600fa00200798002d
:100490000000eb00000f78000c0037000000eb00bc
:1004a00010079800040037000060fe001e00900056
:1004b0000000e800100798009e009000e0822600ef
:1004c000808f5000f8ff36001e0fe8002e009000cd
:1004d0009e0f1000f1ff39000080fa0000000600b6
:1004e0000000fa008eff0700c1e1a900e001200032
:1004f000e5ff0700e602a800803e2000e2ff0700bb
:10050000e602a900e0012000dfff0700e622a800c4
:10051000e0012000dcff0700c1e1a8000000eb00c3
:10052000b00e88000000eb00c00e88000000eb0059
:10053000d00e8800e0c0b300b3010700104088006f
:1005400080c0b300b0010700204088005d000700b4
:10055000f30007000060fe0000003700b14080009b
:10056000703e2000808f50002300360030c0b30062
:10057000a50107000040880020c0b300a2010700c9
:10058000004188000140800080382000808f5000aa
:1005900004003c000141800080382000808f500022
:1005a00002003400c1e1a9001100370001408000c1
:1005b000004180008080500030062000808f500075
:1005c00002003400c1e1a9000900370001408000a9
:1005d0000041800080805000c0f92f00808f5000c3
:1005e00002003c00c1e1a90001003700000000004a
:1005f0000000eb00b040880081812000914078002d
:1006000000c2b30080cf5000030034002d0007006b
:100610000040eb0018e8b70019c8bf00eb4f5000ce
:100620000b00340030c0b3007701070000408800a1
:10063000bb00070030c0b300730107000040880012
:1006400000408000404088000040eb0019e8b700ff
:10065000d1408000703e2000808f5000bfff3600e8
:10066000a04080000000e800a0408800a140800079
:1006700090d72000808f500002003400a0d72000c7
:10068000a0408800a140800090d72000808f5000bb
:1006900009003400104180000000e800104188008b
:1006a0001141800050362000808f5000020034003d
:1006b00060362000104188000000eb00d040880028
:1006c000a6ff37001000fa000000eb00700798004a
:1006d0006000b80050079800610798006000b800fb
:1006e00030079800410798006000b800008fbe00f6
:1006f00050c0b3004401070020079800114080005b
:100700002e009000010050000080e9000000400031
:10071000200798002e0090000000e00002003c003e
:100720000000eb0020079800114180002e0090008f
:1007300000805000700798007e009000cf80de009f
:100740004409dd00cc00de00810071004400dd00c2
:1007500050079800610798005e019000ee0190003c
:10076000f0792d0001002000800f5100818f590089
:1007700004003400007a2d0001002000500798008a
:10078000610798005e019000ee0190000086220053
:10079000f1ff2f00800f5100818f590004003c00b1
:1007a00000862200f1ff2f00500798006107980093
:1007b0007e0090006101b9005040800061408000df
:1007c000020040008380480070408800814088001b
:1007d0007240800083408000f0792d0001002000ed
:1007e000800f5100818f590004003400007a2d00e1
:1007f0000100200070408800814088007240800025
:100800008340800000862200f1ff2f00800f5100fe
:10081000818f590004003c0000862200f1ff2f0068
:1008200070408800814088007040800081408000d6
:100830005040880061408800704080008140800006
:1008400030079800410798003e019000ce019000cb
:10085000f0792d0001002000800f5100818f590098
:1008600004003400007a2d000100200030079800b9
:10087000410798003e019000ce01900000862200c2
:10088000f1ff2f00800f5100818f590004003c00c0
:1008900000862200f1ff2f003007980041079800e2
:1008a0005e009000ee0090003e019000ce019000ae
:1008b000021f400003974800f0792d00010020003e
:1008c000be0f1000ae8f180003003400007a2d0018
:1008d00001002000008fbe0000862200f1ff2f00e3
:1008e000be0f1000ae8f180003003c0000862200ef
:1008f000f1ff2f00008fbe001e00be004b09dd007f
:100900004500de0000007100c588de00008fbe00db
:100910001e007800904088000080fa000000060069
:100920000c00fa000000eb00500798006000b800cf
:1009300030079800410798006000b800008fbe00a3
:1009400080c0b300b000070020079800214080005d
:100950002e00900001005000000040002007980089
:100960002e0090000000e00002003c000000eb00c0
:10097000200798002e009000e04088009140800001
:100980002e00900000805000500798005e009000fc
:100990006103b90086007800500220000009b80009
:1009a0006030b900030278000002420050022000cb
:1009b00000b8b900000242008401780032079800b4
:1009c000430798003e019000ce019000f0792d0081
:1009d00001002000800f5100818f59000400340075
:1009e000007a2d0001002000300798004107980090
:1009f0003e019000ce01900000862200f1ff2f0002
:100a0000800f5100818f590004003c0000862200b5
:100a1000f1ff2f0030079800410798003e0090003a
:100a2000ce009000008fbe00f0792d000100200064
:100a3000be0f1000ae8f180003003400007a2d00a6
:100a400001002000008fbe0000862200f1ff2f0071
:100a5000be0f1000ae8f180003003c00008622007d
:100a6000f1ff2f00008fbe00007a2d000100200052
:100a70001e0f40005e9748001e00be004b09dd00bf
:100a80004500de0000007100c588de00008fbe005a
:100a90001141800050362000808f50000700340044
:100aa0000140800040408000008050004300dd0095
:100ab000cf80de001e1f10001e9718001e00be0013
:100ac000e00f5000e08f580002003c006000b800ca
:100ad000008fbe0090d7200001002000be0f100044
:100ae000ae8f180003003400a0d7200001002000c2
:100af000008fbe001e007800b00e8800a04080006d
:100b0000c00e88000080fa000000060000a0fe0071
:100b10000000fa00c1e1a9000000eb00400e8800cf
:100b20000060fe008980a9000080fa000080fe00bd
:100b30000040060000a0fe003600f800849fbe00c2
:100b4000869fbe000000fa00e1408000300b2000cc
:100b5000808f5000010034008980a80090c0b3004d
:100b6000290007008000780030408000008050009d
:100b700000004000f0408800f04080000000e000ed
:100b800002003c000000eb00f0408800f1408000d3
:100b900090052000808f5000010034008980a8005b
:100ba00088e0a9000080fa004f03be004f02be009b
:100bb0003600f9000080fe000040060000a0fe00a4
:100bc0000000fa0018c8bf000040e80018e8b700ad
:100bd00019c8bf000040e80019e8b700d040800005
:100be0000000e800d0408800b04080000000e8002d
:100bf000b04088000060fe008460a9000080fa0018
:100c00000080fe00004006000200fa00004f78005d
:100c10001e4078006f4060006f416000612a200034
:100c20009140780000cfb30000c060000240700027
:100c3000a6e2b7001e4078006f4060006f41600080
:100c4000712a20009140780000cfb30000c06000fe
:100c500002407000a7e2b700a022a800a0c2bf0017
:100c6000614060000004e000fcff3200a002a90027
:0c0c7000001480000080fa000000060064
:020000040000fa
:0200000401f009
:04000000f7ff000006
:020000040000fa
:0200000401f009
:04000400c0ff000039
:020000040000fa
:0200000401f009
:04000800ffff0000f6
:020000040000fa
:100008005606000056060000560600005606000078
:100018005606000056060000560600005606000068
:10002800560600005606000056060000de050000d1
:100038005606000056060000560600005606000048
:100048005606000056060000560600005606000038
:100058005606000056060000560600005606000028
:100068005606000056060000560600005606000018
:100078005606000056060000560600005606000008
:1000880056060000560600005606000056060000f8
:1000980056060000560600005606000056060000e8
:1000a80056060000560600005606000056060000d8
:1000b8005606000056060000560600009a05000085
:1000c80056060000560600005606000056060000b8
:1000d8008605000056060000560600005606000079
:1000e8005606000056060000560600005606000098
:0800f800560600005606000048
:020000040000fa
:100108005606000056060000560600005606000077
:100118005606000056060000560600005606000067
:10012800560600005606000056060000de050000d0
:100138005606000056060000560600005606000047
:100148005606000056060000560600005606000037
:100158005606000056060000560600005606000027
:100168005606000056060000560600005606000017
:100178005606000056060000560600005606000007
:1001880056060000560600005606000056060000f7
:1001980056060000560600005606000056060000e7
:1001a80056060000560600005606000056060000d7
:1001b8005606000056060000560600009a05000084
:1001c80056060000560600005606000056060000b7
:1001d8008605000056060000560600005606000078
:1001e8005606000056060000560600005606000097
:0801f800560600005606000047
:020000040000fa
:100c7c00160800000e00000002000000000000003a
:100c8c0000000000000000000000000086f20000e0
:100c9c00000800001600000000000000000000002a
:020000040000fa
:080cac000040da000000fe0028
:00000001FF
